:0400000080312428FF
:100008007E14803120007F08F1000B1F1528210085
:10001800111E15282000111E15288631BB26803197
:100028001F280B1F1F282100911E1F282000911E2A
:100038001F288731112771082000FF007E10090052
:100048008031262892308400853085002030860053
:10005800013087004030873177278031FA01FB0172
:10006800EA01EB01EC012100E801E90160308400BC
:1000780001308500103087317D277E1020008031C7
:1000880045288731602780318B170B1722000C1603
:100098002100E601E701E330F5008330F600853101
:1000A8000025803186310626803176082100E70058
:1000B8007508E6006608670403196D280130F20028
:1000C8000030F3000130F4000030F5008431A8243A
:1000D8008031DA302000E2008330E300EB30E400C6
:1000E8008330E5008631D92680312000630821005D
:1000F800E700200062082100E6006608670403198B
:1001080090280130F2000030F3000230F400003093
:10011800F5008431A8248031BB302000E200833010
:10012800E300EB30E4008330E5008631D9268031E6
:10013800200063082100E700200062082100E60093
:10014800660867040319B3280130F2000030F30091
:100158000430F4000030F5008431A8248031A33045
:100168002000E2008330E300EB30E4008330E50058
:100178008631D9268031200063082100E70020005D
:1001880062082100E600660867040319D6280230D1
:10019800F2000030F3000130F4000030F500843143
:1001A800A824803180302000E2008330E300EB3067
:1001B800E4008330E5008631D926803120006308C9
:1001C8002100E700200062082100E60066086704B5
:1001D8000319F9280230F2000030F3000230F4006D
:1001E8000030F5008431A8248031F2302000E2008C
:1001F8008330E300EB30E4008330E5008631D92614
:100208008031200063082100E700200062082100F7
:10021800E6006608670403191C290230F200003062
:10022800F3000630F4000030F5008431A824803152
:100238005C302000E2008330E300EB30E4008330E0
:10024800E5008631D9268031200063082100E700C7
:10025800200062082100E6006608670403193F29A8
:100268000230F2000030F3000730F4000030F500EF
:100278008431A824803108302000E2008330E30074
:10028800EB30E4008330E5008631D9268031200048
:1002980063082100E700200062082100E6006608E4
:1002A8006704031962290230F2000030F3000830B5
:1002B800F4000030F5008431A82480313230200069
:1002C800E2008330E300EB30E4008330E500863160
:1002D800D9268031200063082100E7002000620849
:1002E8002100E60066086704031985290230F20038
:1002F8000030F3000930F4000030F5008431A82400
:100308008031DF302000E2008330E300D330E400A6
:100318008330E5008631D92680312000630821002A
:10032800E700200062082100E60066086704031958
:10033800A8290230F2000030F3000330F400003046
:10034800F5008431A8248031E330F5008330F600CD
:1003580085310025803186310626803176082100D6
:10036800E7007508E600660867040319C629023025
:10037800F2000030F3000430F4000030F50084315E
:10038800A8248031C7302000E2008330E300EB303E
:10039800E4008330E5008631D926803120006308E7
:1003A8002100E700200062082100E60066086704D3
:1003B8000319E9290230F2000030F3000530F40097
:1003C8000030F5008431A8248031D8302000E200C4
:1003D8008230E300EB30E4008330E5008631D92633
:1003E8008031200063082100E70020006208210016
:1003F800E6006608670403190C2A0230F200003090
:10040800F3000A30F4000030F5008431A82480316C
:100418002100E401E5010130E4070030E53D053045
:10042800F2000030F3006508F5006408F400853137
:100438004D25803172087304031D3D2AAF30F60044
:100448008330F70086312D26803177082100E700B8
:100458007608E6006608670403193D2A0230F200B0
:100468000030F3000E30F4000030F5008431A82489
:10047800803121006508803A2000E8008030680259
:10048800031D492A653021006402031C4E2A2100FD
:10049800E401E5010B302000E9002630E8005D307A
:1004A800890B542AE80B542AE90B542A0032AF303E
:1004B800F6008330F70086312D2680317708210039
:1004C800E7007608E600660867040319762A023012
:1004D800F2000030F3000E30F4000030F5008431F3
:1004E800A8248031043087314727803173082100E0
:1004F800E9007208E8002030860001308700A0304B
:1005080084000030850040302000E80016001A0002
:10051800E80B8A2AC730F6008330F70086312D268B
:10052800803177082100E7007608E600660867044E
:100538000319A92A0230F2000030F3000530F40054
:100548000030F5008431A8248031EF302000A0006D
:100558008330A100210069082000A3002100680859
:100568002000A200E0308331F5238031E030200004
:10057800E8006808F200A030863153268031F60082
:100588000030F70086312D26803177082100E700FA
:100598007608E6000F2ACF2A0134003410340034DC
:1005A80000340134003410345334553457342C3467
:1005B8003034313430343234303433343034343409
:1005C80030343534303436343034373430343834E9
:1005D80030343934303430343034413430344234C7
:1005E8003034433430344434303445343034463491
:1005F8002C34413441344234423443344334443457
:100608004434453445340034503443342C34303485
:1006180031343034323430343334303434343034A8
:100628003534303436343034373430343834303488
:100638003934303430343034413430344234303466
:1006480043343034443430344534303446342C3434
:10065800313432342C34303432340034503443346E
:100668002C34463446343034323430343334303435
:10067800343430343534303436343034373430343C
:100688003834303439343034303430344134303420
:1006980042343034433430344434303445343034E4
:1006A80046342C34313441342C343034333400342F
:1006B800503453342C3431343134323432343334CA
:1006C80033343434343435343534363436343734DA
:1006D80037343834383439343934303430344134B8
:1006E800413442344234433443344434443445344A
:1006F800453446344634003453342D342C34503485
:1007080049344334313436342D3442344C3445344E
:1007180032342D34303430343134003430343134E0
:100728003234333434343534363437343834393475
:100738004134423443344434453446340034533429
:1007480052342C3430343034303430343034303463
:1007580030343034003441342C343034303435348F
:1007680030342C3430343734443430340034533457
:1007780053342C344334303430343034303430341F
:100788003034313400345334553457342C34323403
:100798004134313439342C34333432340034523423
:1007A800653462346F346F347434003453344634EF
:1007B8002C343134003452342C3431340034433442
:1007C8004D344434003445344E34443400344134D8
:1007D8004F344B34003425345834003450345A34B0
:1007E80000342000AE002230A4002408AA0021080A
:1007F800A5002008A400A00A0319A10A240884005F
:10080800250885000008A6002608AF002F08031950
:10081800A32C25302F0603191D2C2F08A4002E0801
:1008280086008701240881000130A4002408AE074F
:10083800FB2BA8012108A5002008A400A00A031981
:10084800A10A24088400250885000008AF00003AA2
:100858000319A32C583A0319352C203A0319352CBF
:10086800FB2B2A0886008701403FAB00413FAC00C4
:100878000230A4002408AA07AF01AF0A04302F06EB
:100888000319652C2F08A400A501A435A50DD030A7
:10089800240784008230253D8500003FA600013FE3
:1008A800A70027082C02031D5B2C26082B02031C1B
:1008B800652C0130A4002408AF0704302F06031D5F
:1008C800462C2F08A4002408AD00FF30A4002408FB
:1008D800AD072D0A0319FB2B2D08A400A501A4358B
:1008E800A50DD030240784008230253D8500003FC7
:1008F800F200013FF3002C08F5002B08F4008531C5
:10090800D225833172080F392000A6002608A900D5
:100918002908923E840083300318013E85000008B0
:10092800A4002408AF002F08A4002E088600870121
:10093800240881000130A4002408AE07692C2E0881
:1009480086008701810108000730F7007F30F60034
:100958005030890BAD2CF60BAD2CF70BAD2CF801F4
:10096800F9017908803AF6007308803A7602031D87
:10097800BF2C720878020318F12C87318327843141
:100988000230F7004D30F6007430890BC92CF60B95
:10099800C92CF70BC92C0032741CD42C22008C16DD
:1009A800F41CD82C22008C14741DDC2C22000C158D
:1009B800F41DE02C22008E160230F7004D30F600B0
:1009C8007430890BE52CF60BE52CF70BE52C00327F
:1009D8000130F8070030F93DB52C87318327843181
:1009E8000730F7007F30F6005030890BF92CF60BF2
:1009F800F92CF70BF92C080086319C268531F40078
:100A080074082000A00020080319002DE001E1016E
:100A180086319C268531F40001302000E007003043
:100A2800E13D6008203E8600870174088100600867
:100A3800203E860087010A30010603192E2D610821
:100A4800803AF40080307402031D2C2D403060027F
:100A5800031C0C2D20006008203E860087010A3008
:100A68000106031D3C2D6008203E86008701810198
:100A78006008FF3E203E860087010D300106031DF9
:100A88004B2D6008FF3E203E860087018101203003
:100A98000800F801F51F572DF409F509F40A0319A0
:100AA800F50AF801F80AF31F5E2DF209F309F20AB4
:100AB8000319F30A720873040319852DF701F70A5D
:100AC800F31B702D0130F235F30D890B672D0130C2
:100AD800F6007608F707642D73087502031D762D56
:100AE80072087402031C7C2D7208F4027308F53B2B
:100AF8000130F336F20C890B7D2D0130F702031D0E
:100B0800702D780803198D2DF409F509F40A0319D5
:100B1800F50A7508F3007408F200080053345534D8
:100B280057342C3430343134303432343034333474
:100B38003034343430343534303436343034373477
:100B4800303438343034393430343034303441345B
:100B5800303442343034433430344434303445341F
:100B6800303446342C34003400340034003400343B
:100B780000340034003400340034003400340034CD
:100B880000340034003400340034003400340034BD
:100B9800003400340034003400340034F701F80124
:100BA800720873040319012EF901F90AF31BE62DE3
:100BB8000130F235F30D890BDD2D0130F600760892
:100BC800F907DA2D0130F735F80D890BE72D730891
:100BD8007502031DF12D72087402031CF82D7208AA
:100BE800F4027308F53B77140130F336F20C890BE5
:100BF800F92D0130F902031DE62D7808F300770876
:100C0800F2000800F900102E0130F7007708F90704
:100C18000130F5070030F63D790886008701750830
:100C28008400760885000008FF3A013E0107F700B6
:100C38007708F8007808031D272E790886008701B1
:100C48000108031D082E7808F500F601F51BF603C8
:100C580008002000A001A101760820078400770879
:100C6800213D850012000319492E760820078400CB
:100C78007708213D850000088631782686310130C5
:100C88002000A0070030A13D302E0D308631782697
:100C980086310A3086317826F601F7010800F4001B
:100CA8007408F3007308F5007508860087010108C9
:100CB80003196B2E0130F3007308F507582E013025
:100CC800F3007308F5070130F3007308F20775089D
:100CD800860087017208840085010008C03F8908E2
:100CE800031D632E74080800F30020006D08031923
:100CF800792E2100111A842E730823009A00992E48
:100D080011127308F2007B08683E860001308700E4
:100D1800720881000130F2007208FB0708307B027C
:100D28000318FB0101302000ED0221001116080014
:100D3800F30120006A0803199D2E6B08603E8600A7
:100D4800013087000108F2007208F3000130F20058
:100D58007208EB0708306B020318EB0121009112AF
:100D680001302000EA0221009116730808000830BB
:100D780020006D020318D62E7A08683E86000130DE
:100D88008700010823009A000130F0007008FA0774
:100D980008307A020318FA010130F00070082000C8
:100DA800ED07080021001112080020006308F70071
:100DB8006208F60086312D26863185310025863178
:100DC8002000E6006608E7006508F6006408F500FC
:100DD80067088631062676082000E3007508E200D9
:100DE800080022008C018D018E01093021008C0041
:100DF80070308D00CF308E00CE3023008E00103042
:100E08008D0017308C00F03024008D003F308C00AE
:100E18002100951322009D01080023009D1C162F18
:100E28001D121D161908F00020006C08603E86008F
:100E380001308700700881000130F0007008EC076D
:100E480008306C020318EC010130F0007008EA0762
:100E58000800210091121112093023009F009030E0
:100E68009D0024309E0010309B009C01FB01FA017C
:100E78000830F20072082000ED00EC01EB01EA01F5
:100E8800210091160800F5007508F400F40DF40D22
:100E980021001D087406833974069D001D14033053
:100EA800890B542F000021009D149D18592F1C08F0
:100EB800F3001B08F20008008631F52687318731D8
:100EC8008D27873187318927873187316F27873188
:100ED80087312D270800013021009D009E019F01C8
:100EE8009B019C010800FE0012001E00FE0B782FDB
:100EF8000034640080010131890B7E2F0034220008
:100F08008C128C100C118E120800163021009700DC
:0A0F18000800703021009900080065
:020000040001F9
:04000E00E4FFFFFF0D
:00000001FF
