:0400000080312428FF
:100008007E14803120007F08F1000B1F1528210085
:10001800111E15282000111E152886317E268031D4
:100028001F280B1F1F282100911E1F282000911E2A
:100038001F288631D42671082000FF007E10090091
:100048008031262855308400853085002030860090
:1000580001308700403087313A278031FA01FB01AF
:10006800EA01EB01EC012100E801E90160308400BC
:10007800013085001030873140277E102000803104
:1000880045288731232780318B170B1722000C1640
:100098002100E601E701A630F5008330F60084313F
:1000A800C32480318531C925803176082100E700D5
:1000B8007508E6006608670403196D280130F20028
:1000C8000030F3000130F4000030F50084316B2477
:1000D80080319D302000E2008330E300AE30E40040
:1000E8008330E50086319C2680312000630821009A
:1000F800E700200062082100E6006608670403198B
:1001080090280130F2000030F3000230F400003093
:10011800F50084316B24803172302000E200833096
:10012800E300AE30E4008330E50086319C26803160
:10013800200063082100E700200062082100E60093
:10014800660867040319B3280130F2000030F30091
:100158000430F4000030F50084316B2480315A30CB
:100168002000E2008330E300AE30E4008330E50095
:1001780086319C268031200063082100E70020009A
:1001880062082100E600660867040319D6280230D1
:10019800F2000030F3000130F4000030F500843143
:1001A8006B2480318A302000E2008330E300AE30D7
:1001B800E4008330E50086319C2680312000630806
:1001C8002100E700200062082100E60066086704B5
:1001D8000319F9280230F2000030F3000230F4006D
:1001E8000030F50084316B248031B5302000E20006
:1001F8008330E300AE30E4008330E50086319C268E
:100208008031200063082100E700200062082100F7
:10021800E6006608670403191C290230F200003062
:10022800F3000630F4000030F50084316B2480318F
:1002380025302000E2008330E300AE30E400833054
:10024800E50086319C268031200063082100E70004
:10025800200062082100E6006608670403193F29A8
:100268000230F2000030F3000730F4000030F500EF
:1002780084316B248031D1302000E2008230E300E9
:10028800AE30E4008330E50086319C2680312000C2
:1002980063082100E700200062082100E6006608E4
:1002A8006704031962290230F2000030F3000830B5
:1002B800F4000030F50084316B248031FB302000DD
:1002C800E2008230E300AE30E4008330E50086319E
:1002D8009C268031200063082100E7002000620886
:1002E8002100E60066086704031985290230F20038
:1002F8000030F3000930F4000030F50084316B243D
:100308008031A2302000E2008330E3009630E40020
:100318008330E50086319C26803120006308210067
:10032800E700200062082100E60066086704031958
:10033800A8290230F2000030F3000330F400003046
:10034800F50084316B248031A630F5008330F60047
:100358008431C32480318531C92580317608210054
:10036800E7007508E600660867040319C629023025
:10037800F2000030F3000430F4000030F50084315E
:100388006B2480317E302000E2008330E300AE3001
:10039800E4008330E50086319C2680312000630824
:1003A8002100E700200062082100E60066086704D3
:1003B8000319E9290230F2000030F3000530F40097
:1003C8000030F50084316B248031A1302000E20038
:1003D8008230E300AE30E4008330E50086319C26AD
:1003E8008031200063082100E70020006208210016
:1003F800E6006608670403190C2A0230F200003090
:10040800F3000A30F4000030F50084316B248031A9
:100418002100E401E5010530F2000030F300650831
:10042800F5006408F40085311025803172087304E2
:10043800031D392A6630F6008330F7008531F02530
:10044800803177082100E7007608E600660867042F
:100458000319392A0230F2000030F3000E30F4009C
:100468000030F50084316B24803101302100E4072D
:100478000030E53D6508803A2000E80080306802D9
:10048800031D492A653021006402031C4E2A2100FD
:10049800E401E5010B302000E9002630E8005D307A
:1004A800890B542AE80B542AE90B542A00320430E9
:1004B80087310A27803173082100E9007208E800B3
:1004C800B2302000A0008330A1002100690820007C
:1004D800A300210068082000A200E0308331B8237F
:1004E80080312030860001308700A0308400003041
:1004F800850040302000E80016001A00E80B802A2A
:10050800E030E8006808F200A03086311626803115
:10051800F6000030F7008531F0258031770821009A
:10052800E7007608E6000F2A982A013400341034D0
:100538000034003401340034103453345534573403
:100548002C34373438343134373441343834453442
:1005580042344634363443344234343442344534F5
:100568003334383431343434333435343234303449
:100578003834363437343134393437343534343424
:1005880044342C34413441344234423443344334C7
:1005980044344434453445340034503443342C34E2
:1005A80037343834313437344134383445344234CC
:1005B80046343634433442343434423445343334A4
:1005C80038343134343433343534323430343834E4
:1005D80036343734313439343734353434344434B8
:1005E8002C34313432342C343034323400345034F6
:1005F80043342C3443343034393433343634383497
:100608003534443430343034353446343434443476
:100618003334433438343234343430343634443474
:100628003334303432343034413432344334363471
:10063800303438342C34313441342C34313434347B
:100648000034503453342C34363432343234443455
:100658004634343430343134383435344534443421
:10066800343436343634363441343434463445340C
:1006780039344534463441344134333441344234D6
:100688003434373441344134003430343134323442
:1006980033343434353436343734383439344134F7
:1006A80042344334443445344634003453345234A9
:1006B8002C34303430343034303430343034303416
:1006C8003034003441342C34303430343534303420
:1006D8002C343034373444343034003453345334C5
:1006E8002C344334303430343034303430343034D3
:1006F800313400345334553457342C343234413483
:10070800313439342C3433343234003453344E34A5
:100718002C345034493443343134363442344C3434
:10072800453400345234653462346F346F34743471
:100738000034533446342C343134003452342C349D
:100748003134003443344D344434003445344E3469
:100758004434003441344F344B3400342534583455
:10076800003450345A3400342000AE002230A40043
:100778002408AA002108A5002008A400A00A03193B
:10078800A10A24088400250885000008A600260878
:10079800AF002F080319662C25302F060319E02B0C
:1007A8002F08A4002E088600870124088100013044
:1007B800A4002408AE07BE2BA8012108A500200824
:1007C800A400A00A0319A10A2408840025088500AA
:1007D8000008AF00003A0319662C583A0319F82BA1
:1007E800203A0319F82BBE2B2A0886008701403FC0
:1007F800AB00413FAC000230A4002408AA07AF01B7
:10080800AF0A04302F060319282C2F08A400A501CD
:10081800A435A50D9930240784008230253D850034
:10082800003FA600013FA70027082C02031D1E2C2D
:1008380026082B02031C282C0130A4002408AF072B
:1008480004302F06031D092C2F08A4002408AD002E
:10085800FF30A4002408AD072D0A0319BE2B2D086C
:10086800A400A501A435A50D993024078400823081
:10087800253D8500003FF200013FF3002C08F500FC
:100888002B08F40085319525833172080F39200033
:10089800A6002608A9002908493E840083300318C9
:1008A800013E85000008A4002408AF002F08A4001A
:1008B8002E0886008701240881000130A40024083E
:1008C800AE072C2C2E08860087018101080007300E
:1008D800F7007F30F6005030890B702CF60B702C27
:1008E800F70B702CF801F9017908803AF6007308C3
:1008F800803A7602031D822C720878020318B42C01
:100908008731462784310230F7004D30F6007430C5
:10091800890B8C2CF60B8C2CF70B8C2C0032741C4E
:10092800972C22008C16F41C9B2C22008C14741D0E
:100938009F2C22000C15F41DA32C22008E160230C9
:10094800F7004D30F6007430890BA82CF60BA82C54
:10095800F70BA82C00320130F8070030F93D782C4D
:100968008731462784310730F7007F30F600503052
:10097800890BBC2CF60BBC2CF70BBC2C0800863161
:100988005F268431F40074082000A00020080319B1
:10099800C32CE001E10186315F268431F400013087
:1009A8002000E0070030E13D6008203E8600870116
:1009B800740881006008203E860087010A3001061D
:1009C8000319F12C6108803AF40080307402031D89
:1009D800EF2C40306002031CCF2C20006008203E22
:1009E800860087010A300106031DFF2C6008203E9F
:1009F8008600870181016008FF3E203E860087014E
:100A08000D300106031D0E2D6008FF3E203E8600B6
:100A18008701810120300800F801F51F1A2DF4091B
:100A2800F509F40A0319F50AF801F80AF31F212D4C
:100A3800F209F309F20A0319F30A72087304031995
:100A4800482DF701F70AF31B332D0130F235F30D6A
:100A5800890B2A2D0130F6007608F707272D730831
:100A68007502031D392D72087402031C3F2D72088C
:100A7800F4027308F53B0130F336F20C890B402D74
:100A88000130F702031D332D78080319502DF4099E
:100A9800F509F40A0319F50A7508F3007408F20059
:100AA80008005334553457342C34373438343134FF
:100AB8003734413438344534423446343634433498
:100AC80042343434423445343334383431343434B1
:100AD80033343534323430343834363437343134CE
:100AE800393437343534343444342C340034003415
:100AF800003400340034003400340034003400344E
:100B0800003400340034003400340034003400343D
:100B1800003400340034003400340034003400342D
:100B28000034F701F801720873040319C42DF901A0
:100B3800F90AF31BA92D0130F235F30D890BA02D0D
:100B48000130F6007608F9079D2D0130F735F80DCC
:100B5800890BAA2D73087502031DB42D720874023F
:100B6800031CBB2D7208F4027308F53B771401309F
:100B7800F336F20C890BBC2D0130F902031DA92DA7
:100B88007808F3007708F2000800F900D32D013047
:100B9800F7007708F9070130F5070030F63D7908C6
:100BA8008600870175088400760885000008FF3AEA
:100BB800013E0107F7007708F8007808031DEA2DC1
:100BC8007908860087010108031DCB2D7808F500F8
:100BD800F601F51BF60308002000A001A101760824
:100BE800200784007708213D8500120003190C2E88
:100BF8007608200784007708213D850000088631A3
:100C08003B26853101302000A0070030A13DF32D9F
:100C18000D3086313B2685310A3086313B26F60178
:100C2800F7010800F4007408F3007308F50075086C
:100C380086008701010803192E2E0130F30073087E
:100C4800F5071B2E0130F3007308F5070130F30098
:100C58007308F20775088600870172088400850109
:100C68000008C03F8908031D262E74080800F300F9
:100C780020006D0803193C2E2100111A472E730815
:100C880023009A005C2E11127308F2007B08683E5C
:100C9800860001308700720881000130F200720876
:100CA800FB0708307B020318FB0101302000ED022E
:100CB800210011160800F30120006A080319602EAC
:100CC8006B08603E8600013087000108F200720858
:100CD800F3000130F2007208EB0708306B020318CA
:100CE800EB012100911201302000EA022100911647
:100CF80073080800083020006D020318992E7A083E
:100D0800683E860001308700010823009A00013000
:100D1800F0007008FA0708307A020318FA01013067
:100D2800F00070082000ED070800210011120800EB
:100D380020006308F7006208F6008531F025863147
:100D48008431C32486312000E6006608E700650880
:100D5800F6006408F50067088531C9257608200083
:100D6800E3007508E200080022008C018D018E0165
:100D7800093021008C0070308D00CF308E00CE30CD
:100D880023008E0010308D0017308C00F0302400C6
:100D98008D003F308C002100951322009D01080032
:100DA80023009D1CD92E1D121D161908F0002000C5
:100DB8006C08603E860001308700700881000130B1
:100DC800F0007008EC0708306C020318EC010130E1
:100DD800F0007008EA07080021009112111209308A
:100DE80023009F0090309D0024309E0010309B000F
:100DF8009C01FB01FA010830F20072082000ED00A6
:100E0800EC01EB01EA01210091160800F5007508D4
:100E1800F400F40DF40D21001D08740683397406DE
:100E28009D001D140330890B172F000021009D140D
:100E38009D181C2F1C08F3001B08F20008008631BF
:100E4800B826873187315027873187314C2787313A
:100E58008731322787318631F0260800013021009A
:100E68009D009E019F019B019C010800FE0012004D
:100E78001E00FE0B3B2F0034640080010131890BFA
:100E8800412F003422008C128C100C118E12080095
:100E980016302100970008007030210099000800E2
:020000040001F9
:04000E00E4FFFFFF0D
:00000001FF
