:0400000080312428FF
:100008007E14803120007F08F1000B1F1528210085
:10001800111E15282000111E152886317F268031D3
:100028001F280B1F1F282100911E1F282000911E2A
:100038001F288631D52671082000FF007E10090090
:10004800803126285630840085308500203086008F
:1000580001308700403087313B278031FA01FB01AE
:10006800EA01EB01EC012100E801E90160308400BC
:10007800013085001030873141277E102000803103
:1000880045288731242780318B170B1722000C163F
:100098002100E601E701A730F5008330F60084313E
:1000A800C42480318531CA25803176082100E700D3
:1000B8007508E6006608670403196D280130F20028
:1000C8000030F3000130F4000030F50084316C2476
:1000D80080319E302000E2008330E300AF30E4003E
:1000E8008330E50086319D26803120006308210099
:1000F800E700200062082100E6006608670403198B
:1001080090280130F2000030F3000230F400003093
:10011800F50084316C24803173302000E200833094
:10012800E300AF30E4008330E50086319D2680315E
:10013800200063082100E700200062082100E60093
:10014800660867040319B3280130F2000030F30091
:100158000430F4000030F50084316C2480315B30C9
:100168002000E2008330E300AF30E4008330E50094
:1001780086319D268031200063082100E700200099
:1001880062082100E600660867040319D6280230D1
:10019800F2000030F3000130F4000030F500843143
:1001A8006C2480318B302000E2008330E300AF30D4
:1001B800E4008330E50086319D2680312000630805
:1001C8002100E700200062082100E60066086704B5
:1001D8000319F9280230F2000030F3000230F4006D
:1001E8000030F50084316C248031B6302000E20004
:1001F8008330E300AF30E4008330E50086319D268C
:100208008031200063082100E700200062082100F7
:10021800E6006608670403191C290230F200003062
:10022800F3000630F4000030F50084316C2480318E
:1002380026302000E2008330E300AF30E400833052
:10024800E50086319D268031200063082100E70003
:10025800200062082100E6006608670403193F29A8
:100268000230F2000030F3000730F4000030F500EF
:1002780084316C248031D2302000E2008230E300E7
:10028800AF30E4008330E50086319D2680312000C0
:1002980063082100E700200062082100E6006608E4
:1002A8006704031962290230F2000030F3000830B5
:1002B800F4000030F50084316C248031FC302000DB
:1002C800E2008230E300AF30E4008330E50086319D
:1002D8009D268031200063082100E7002000620885
:1002E8002100E60066086704031985290230F20038
:1002F8000030F3000930F4000030F50084316C243C
:100308008031A3302000E2008330E3009730E4001E
:100318008330E50086319D26803120006308210066
:10032800E700200062082100E60066086704031958
:10033800A8290230F2000030F3000330F400003046
:10034800F50084316C248031A730F5008330F60045
:100358008431C42480318531CA2580317608210052
:10036800E7007508E600660867040319C629023025
:10037800F2000030F3000430F4000030F50084315E
:100388006C2480317F302000E2008330E300AF30FE
:10039800E4008330E50086319D2680312000630823
:1003A8002100E700200062082100E60066086704D3
:1003B8000319E9290230F2000030F3000530F40097
:1003C8000030F50084316C248031A2302000E20036
:1003D8008230E300AF30E4008330E50086319D26AB
:1003E8008031200063082100E70020006208210016
:1003F800E6006608670403190C2A0230F200003090
:10040800F3000A30F4000030F50084316C248031A8
:100418002100E401E5010530F2000030F30021007D
:100428006508F5006408F4008531112580317208EB
:100438007304031D3A2A6730F6008330F7008531CC
:10044800F125803177082100E7007608E600660884
:10045800670403193A2A0230F2000030F3000E3024
:10046800F4000030F50084316C2480310130210023
:10047800E4070030E53D6508803A2000E800803058
:100488006802031D4A2A653021006402031C4F2AB2
:100498002100E401E5010B302000E9002630E800E6
:1004A8005D30890B552AE80B552AE90B552A00328D
:1004B800043087310B27803173082100E900720866
:1004C800E8002030860001308700A030840000302A
:1004D800850040302000E80016001A00E80B702A5A
:1004E800E030E8006808F200A03086311726803135
:1004F800F6000030F7008531F125803177082100BA
:10050800E7007608E600B3302000A0008330A100A1
:10051800210069082000A300210068082000A2002B
:10052800E0308331B92380310F2A992A013400340D
:10053800103400340034013400341034533455344A
:1005480057342C3437343834313437344134383430
:1005580045344234463436344334423434344234F5
:100568004534333438343134343433343534323434
:100578003034383436343734313439343734353428
:10058800343444342C3441344134423442344334D6
:1005980043344434443445344534003450344334CB
:1005A8002C343734383431343734413438344534E2
:1005B8004234463436344334423434344234453495
:1005C80033343834313434343334353432343034E9
:1005D80038343634373431343934373435343434C4
:1005E80044342C34313432342C3430343234003402
:1005F800503443342C34433430343934333436347F
:100608003834353444343034303435344634343482
:100618004434333443343834323434343034363474
:100628004434333430343234303441343234433463
:100638003634303438342C34313441342C3430347A
:1006480033340034503453342C3436343234323466
:100658004434463434343034313438343534453421
:10066800443434343634363436344134343446340D
:1006780045343934453446344134413433344134D3
:100688004234343437344134413400343034313432
:100698003234333434343534363437343834393406
:1006A80041344234433444344534463400345334BA
:1006B80052342C34303430343034303430343034F4
:1006C80030343034003441342C3430343034353420
:1006D80030342C34303437344434303400345334E8
:1006E80053342C34433430343034303430343034B0
:1006F8003034313400345334553457342C34323494
:100708004134313439342C343334323400345334B2
:100718002D342C3450344934433431343634423453
:100728004C34453400345234653462346F346F3499
:1007380074340034533446342C3431340034523455
:100748002C343134003443344D344434003445348B
:100758004E344434003441344F344B34003425345F
:100768005834003450345A3400342000AE0022305B
:10077800A4002408AA002108A5002008A400A00AB3
:100788000319A10A24088400250885000008A6008A
:100798002608AF002F080319672C25302F060319E8
:1007A800E12B2F08A4002E08860087012408810069
:1007B8000130A4002408AE07BF2BA8012108A5001A
:1007C8002008A400A00A0319A10A24088400250807
:1007D80085000008AF00003A0319672C583A03193E
:1007E800F92B203A0319F92BBF2B2A088600870119
:1007F800403FAB00413FAC000230A4002408AA07E8
:10080800AF01AF0A04302F060319292C2F08A400C2
:10081800A501A435A50D9A30240784008230253D12
:100828008500003FA600013FA70027082C02031DF2
:100838001F2C26082B02031C292C0130A400240895
:10084800AF0704302F06031D0A2C2F08A400240824
:10085800AD00FF30A4002408AD072D0A0319BF2BF3
:100868002D08A400A501A435A50D9A3024078400FD
:100878008230253D8500003FF200013FF3002C083F
:10088800F5002B08F40085319625833172080F395D
:100898002000A6002608A90029084A3E84008330C3
:1008A8000318013E85000008A4002408AF002F08A3
:1008B800A4002E0886008701240881000130A400C6
:1008C8002408AE072D2C2E08860087018101080018
:1008D8000730F7007F30F6005030890B712CF60B8B
:1008E800712CF70B712CF801F9017908803AF600A0
:1008F8007308803A7602031D832C72087802031865
:10090800B52C8731472784310230F7004D30F60087
:100918007430890B8D2CF60B8D2CF70B8D2C003237
:10092800741C982C22008C16F41C9C2C22008C140D
:10093800741DA02C22000C15F41DA42C22008E1668
:100948000230F7004D30F6007430890BA92CF60BF5
:10095800A92CF70BA92C00320130F8070030F93D1B
:10096800792C8731472784310730F7007F30F6002C
:100978005030890BBD2CF60BBD2CF70BBD2C080095
:10098800863160268431F40074082000A000200815
:100998000319C42CE001E101863160268431F4009A
:1009A80001302000E0070030E13D6008203E86006D
:1009B8008701740881006008203E860087010A309C
:1009C80001060319F22C6108803AF40080307402A1
:1009D800031DF02C40306002031CD02C200060085E
:1009E800203E860087010A300106031D002D60089D
:1009F800203E8600870181016008FF3E203E860078
:100A080087010D300106031D0F2D6008FF3E203EB3
:100A180086008701810120300800F801F51F1B2D91
:100A2800F409F509F40A0319F50AF801F80AF31F9D
:100A3800222DF209F309F20A0319F30A7208730462
:100A48000319492DF701F70AF31B342D0130F2354C
:100A5800F30D890B2B2D0130F6007608F707282DAA
:100A680073087502031D3A2D72087402031C402D89
:100A78007208F4027308F53B0130F336F20C890B67
:100A8800412D0130F702031D342D78080319512D2B
:100A9800F409F509F40A0319F50A7508F30074084E
:100AA800F20008005334553457342C343734383472
:100AB80031343734413438344534423446343634AA
:100AC80043344234343442344534333438343134A2
:100AD80034343334353432343034383436343734CB
:100AE8003134393437343534343444342C340034E4
:100AF800003400340034003400340034003400344E
:100B0800003400340034003400340034003400343D
:100B1800003400340034003400340034003400342D
:100B280000340034F701F801720873040319C52D65
:100B3800F901F90AF31BAA2D0130F235F30D890BDF
:100B4800A12D0130F6007608F9079E2D0130F73502
:100B5800F80D890BAB2D73087502031DB52D7208AE
:100B68007402031CBC2D7208F4027308F53B771459
:100B78000130F336F20C890BBD2D0130F902031D4B
:100B8800AA2D7808F3007708F2000800F900D42DA0
:100B98000130F7007708F9070130F5070030F63D16
:100BA80079088600870175088400760885000008A2
:100BB800FF3A013E0107F7007708F8007808031D9F
:100BC800EB2D7908860087010108031DCC2D7808D4
:100BD800F500F601F51BF60308002000A001A101AD
:100BE8007608200784007708213D85001200031944
:100BF8000D2E7608200784007708213D850000081F
:100C080086313C26853101302000A0070030A13D07
:100C1800F42D0D3086313C2685310A3086313C264C
:100C2800F601F7010800F4007408F3007308F500F2
:100C3800750886008701010803192F2E0130F3007B
:100C48007308F5071C2E0130F3007308F50701300F
:100C5800F3007308F207750886008701720884009C
:100C680085010008C03F8908031D272E7408080065
:100C7800F30020006D0803193D2E2100111A482E9B
:100C8800730823009A005D2E11127308F2007B0886
:100C9800683E860001308700720881000130F2004A
:100CA8007208FB0708307B020318FB0101302000A3
:100CB800ED02210011160800F30120006A0803194B
:100CC800612E6B08603E8600013087000108F20043
:100CD8007208F3000130F2007208EB0708306B026B
:100CE8000318EB012100911201302000EA022100D3
:100CF800911673080800083020006D0203189A2E18
:100D08007A08683E860001308700010823009A00AF
:100D18000130F0007008FA0708307A020318FA0167
:100D28000130F00070082000ED07080021001112C2
:100D3800080020006308F7006208F6008531F125F5
:100D480086318431C42486312000E6006608E70035
:100D58006508F6006408F50067088531CA25760835
:100D68002000E3007508E200080022008C018D01D4
:100D78008E01093021008C0070308D00CF308E003C
:100D8800CE3023008E0010308D0017308C00F030EC
:100D980024008D003F308C002100951322009D0116
:100DA800080023009D1CDA2E1D121D161908F000DC
:100DB80020006C08603E86000130870070088100C2
:100DC8000130F0007008EC0708306C020318EC01E1
:100DD8000130F0007008EA07080021009112111292
:100DE800093023009F0090309D0024309E00103071
:100DF8009B009C01FB01FA010830F20072082000F8
:100E0800ED00EC01EB01EA01210091160800F50064
:100E18007508F400F40DF40D21001D0874068339DB
:100E280074069D001D140330890B182F0000210043
:100E38009D149D181D2F1C08F3001B08F2000800C4
:100E48008631B926873187315127873187314D2738
:100E580087318731332787318631F1260800013001
:100E680021009D009E019F019B019C010800FE003E
:100E780012001E00FE0B3C2F00346400800101317B
:100E8800890B422F003422008C128C100C118E1208
:100E980008001630210097000800703021009900E2
:020EA800080040
:020000040001F9
:04000E00E4FFFFFF0D
:00000001FF
