:0400000080312428FF
:100008007E14803120007F08F1000B1F1528210085
:10001800111E15282000111E1528863173268031DF
:100028001F280B1F1F282100911E1F282000911E2A
:100038001F288631C92671082000FF007E1009009C
:10004800803126284A30840085308500203086009B
:1000580001308700403087312F278031FA01FB01BA
:10006800EA01EB01EC012100E801E90160308400BC
:10007800013085001030873135277E10200080310F
:1000880045288731182780318B170B1722000C164B
:100098002100E601E7019B30F5008330F60084314A
:1000A800B82480318531BE25803176082100E700EB
:1000B8007508E6006608670403196D280130F20028
:1000C8000030F3000130F4000030F5008431602482
:1000D800803192302000E2008330E300A330E40056
:1000E8008330E500863191268031200063082100A5
:1000F800E700200062082100E6006608670403198B
:1001080090280130F2000030F3000230F400003093
:10011800F50084316024803173302000E2008330A0
:10012800E300A330E4008330E50086319126803176
:10013800200063082100E700200062082100E60093
:10014800660867040319B3280130F2000030F30091
:100158000430F4000030F5008431602480315B30D5
:100168002000E2008330E300A330E4008330E500A0
:10017800863191268031200063082100E7002000A5
:1001880062082100E600660867040319D6280230D1
:10019800F2000030F3000130F4000030F500843143
:1001A8006024803138302000E2008330E300A3303F
:1001B800E4008330E5008631912680312000630811
:1001C8002100E700200062082100E60066086704B5
:1001D8000319F9280230F2000030F3000230F4006D
:1001E8000030F500843160248031AA302000E2001C
:1001F8008330E300A330E4008330E50086319126A4
:100208008031200063082100E700200062082100F7
:10021800E6006608670403191C290230F200003062
:10022800F3000630F4000030F5008431602480319A
:1002380014302000E2008330E300A330E400833070
:10024800E500863191268031200063082100E7000F
:10025800200062082100E6006608670403193F29A8
:100268000230F2000030F3000730F4000030F500EF
:10027800843160248031EA302000E2008230E300DB
:10028800A330E4008330E5008631912680312000D8
:1002980063082100E700200062082100E6006608E4
:1002A8006704031962290230F2000030F3000830B5
:1002B800F4000030F500843160248031C030200023
:1002C800E2008230E300A330E4008330E5008631A9
:1002D80091268031200063082100E7002000620891
:1002E8002100E60066086704031985290230F20038
:1002F8000030F3000930F4000030F5008431602448
:10030800803197302000E2008330E3008B30E40036
:100318008330E50086319126803120006308210072
:10032800E700200062082100E60066086704031958
:10033800A8290230F2000030F3000330F400003046
:10034800F5008431602480319B30F5008330F6005D
:100358008431B82480318531BE258031760821006A
:10036800E7007508E600660867040319C629023025
:10037800F2000030F3000430F4000030F50084315E
:10038800602480317F302000E2008330E300A33016
:10039800E4008330E500863191268031200063082F
:1003A8002100E700200062082100E60066086704D3
:1003B8000319E9290230F2000030F3000530F40097
:1003C8000030F50084316024803190302000E20054
:1003D8008230E300A330E4008330E50086319126C3
:1003E8008031200063082100E70020006208210016
:1003F800E6006608670403190C2A0230F200003090
:10040800F3000A30F4000030F500843160248031B4
:100418002100E401E5010130E4070030E53D053045
:10042800F2000030F3006508F5006408F400853137
:100438000525803172087304031D3D2A6730F600D4
:100448008330F7008531E525803177082100E70002
:100458007608E6006608670403193D2A0230F200B0
:100468000030F3000E30F4000030F50084316024D1
:1004780080310B302000E9002630E8005D30890B20
:10048800432AE80B432AE90B432A00320430863119
:10049800FF26803173082100E9007208E800203047
:1004A800860001308700A03084000030850040308D
:1004B8002000E80016001A00E80B5E2AA730A0000A
:1004C8008330A100210069082000A30021006808EA
:1004D8002000A200E0308331AD238031E0302000DD
:1004E800E8006808F200A03086310B268031F6005B
:1004F8000030F7008531E525803177082100E700D5
:100508007608E6000F2A872A0134003410340034B4
:1005180000340134003410345334553457342C34F7
:100528003034313430343234303433343034343499
:100538003034353430343634303437343034383479
:100548003034393430343034303441343034423457
:100558003034433430344434303445343034463421
:100568002C344134413442344234433443344434E7
:100578004434453445340034503443342C34463400
:100588004634303432343034333430343434303424
:100598003534303436343034373430343834303419
:1005A80039343034303430344134303442343034F7
:1005B80043343034443430344534303446342C34C5
:1005C800313441342C3430343334003450344334EF
:1005D8002C343034313430343234303433343034F1
:1005E80034343034353430343634303437343034CD
:1005F80038343034393430343034303441343034B1
:100608004234303443343034443430344534303474
:1006180046342C34303432342C34303435340034CD
:10062800503453342C34313431343234323433345A
:10063800333434343434353435343634363437346A
:100648003734383438343934393430343034413448
:1006580041344234423443344334443444344534DA
:10066800453446344634003453342D342C34503415
:1006780049344334313436342D3442344C344534DF
:1006880032342D3430343034313400343034313471
:100698003234333434343534363437343834393406
:1006A80041344234433444344534463400345334BA
:1006B80052342C34303430343034303430343034F4
:1006C80030343034003441342C3430343034353420
:1006D80030342C34303437344434303400345334E8
:1006E80053342C34433430343034303430343034B0
:1006F8003034313400345334553457342C34323494
:100708004134313439342C343334323400345234B3
:10071800653462346F346F3474340034533446347F
:100728002C343134003452342C34313400344334D2
:100738004D344434003445344E3444340034413468
:100748004F344B34003425345834003450345A3440
:1007580000342000AE002230A4002408AA0021089A
:10076800A5002008A400A00A0319A10A24088400EF
:10077800250885000008A6002608AF002F080319E1
:100788005B2C25302F060319D52B2F08A4002E0823
:1007980086008701240881000130A4002408AE07E0
:1007A800B32BA8012108A5002008A400A00A03195A
:1007B800A10A24088400250885000008AF00003A33
:1007C80003195B2C583A0319ED2B203A0319ED2B2A
:1007D800B32B2A0886008701403FAB00413FAC009D
:1007E8000230A4002408AA07AF01AF0A04302F067C
:1007F80003191D2C2F08A400A501A435A50D8830C8
:10080800240784008230253D8500003FA600013F73
:10081800A70027082C02031D132C26082B02031CF3
:100828001D2C0130A4002408AF0704302F06031D37
:10083800FE2B2F08A4002408AD00FF30A4002408D4
:10084800AD072D0A0319B32B2D08A400A501A43563
:10085800A50D8830240784008230253D8500003F9F
:10086800F200013FF3002C08F5002B08F400853155
:100878008A25833172080F392000A6002608A900AE
:1008880029084A3E840083300318013E8500000889
:10089800A4002408AF002F08A4002E0886008701B2
:1008A800240881000130A4002408AE07212C2E085A
:1008B80086008701810108000730F7007F30F600C5
:1008C8005030890B652CF60B652CF70B652CF8015D
:1008D800F9017908803AF6007308803A7602031D18
:1008E800772C720878020318A92C87313B278431AA
:1008F8000230F7004D30F6007430890B812CF60B6E
:10090800812CF70B812C0032741C8C2C22008C1645
:10091800F41C902C22008C14741D942C22000C15AD
:10092800F41D982C22008E160230F7004D30F60088
:100938007430890B9D2CF60B9D2CF70B9D2C0032E7
:100948000130F8070030F93D6D2C87313B278431A1
:100958000730F7007F30F6005030890BB12CF60BCA
:10096800B12CF70BB12C0800863154268431F400E1
:1009780074082000A00020080319B82CE001E10148
:10098800863154268431F40001302000E00700301D
:10099800E13D6008203E86008701740881006008F8
:1009A800203E860087010A3001060319E62C6108FB
:1009B800803AF40080307402031DE42C4030600259
:1009C800031CC42C20006008203E860087010A30E2
:1009D8000106031DF42C6008203E86008701810172
:1009E8006008FF3E203E860087010D300106031D8A
:1009F800032D6008FF3E203E8600870181012030DC
:100A08000800F801F51F0F2DF409F509F40A031978
:100A1800F50AF801F80AF31F162DF209F309F20A8C
:100A28000319F30A7208730403193D2DF701F70A35
:100A3800F31B282D0130F235F30D890B1F2D0130E2
:100A4800F6007608F7071C2D73087502031D2E2D76
:100A580072087402031C342D7208F4027308F53B03
:100A68000130F336F20C890B352D0130F702031DE6
:100A7800282D78080319452DF409F509F40A0319F6
:100A8800F50A7508F3007408F20008005334553469
:100A980057342C3430343134303432343034333405
:100AA8003034343430343534303436343034373408
:100AB80030343834303439343034303430344134EC
:100AC80030344234303443343034443430344534B0
:100AD800303446342C3400340034003400340034CC
:100AE800003400340034003400340034003400345E
:100AF800003400340034003400340034003400344E
:100B0800003400340034003400340034F701F801B4
:100B1800720873040319B92DF901F90AF31B9E2D04
:100B28000130F235F30D890B952D0130F60076086A
:100B3800F907922D0130F735F80D890B9F2D7308B1
:100B48007502031DA92D72087402031CB02D7208CA
:100B5800F4027308F53B77140130F336F20C890B75
:100B6800B12D0130F902031D9E2D7808F300770896
:100B7800F2000800F900C82D0130F7007708F907DE
:100B88000130F5070030F63D7908860087017508C1
:100B98008400760885000008FF3A013E0107F70047
:100BA8007708F8007808031DDF2D7908860087018B
:100BB8000108031DC02D7808F500F601F51BF603A2
:100BC80008002000A001A10176082007840077080A
:100BD800213D850012000319012E760820078400A4
:100BE8007708213D8500000886313026853101309F
:100BF8002000A0070030A13DE82D0D3086313026B9
:100C080085310A3086313026F601F7010800F400F4
:100C18007408F3007308F500750886008701010859
:100C28000319232E0130F3007308F507102E013045
:100C3800F3007308F5070130F3007308F20775082D
:100C4800860087017208840085010008C03F890872
:100C5800031D1B2E74080800F30020006D080319FB
:100C6800312E2100111A3C2E730823009A00512EB0
:100C780011127308F2007B08683E86000130870075
:100C8800720881000130F2007208FB0708307B020D
:100C98000318FB0101302000ED02210011160800A5
:100CA800F30120006A080319552E6B08603E860080
:100CB800013087000108F2007208F3000130F200E9
:100CC8007208EB0708306B020318EB012100911240
:100CD80001302000EA02210091167308080008304C
:100CE80020006D0203188E2E7A08683E86000130B7
:100CF8008700010823009A000130F0007008FA0705
:100D080008307A020318FA010130F0007008200058
:100D1800ED07080021001112080020006308F70001
:100D28006208F6008531E52586318431B82486319C
:100D38002000E6006608E7006508F6006408F5008C
:100D480067088531BE2576082000E3007508E200B3
:100D5800080022008C018D018E01093021008C00D1
:100D680070308D00CF308E00CE3023008E001030D2
:100D78008D0017308C00F03024008D003F308C003F
:100D88002100951322009D01080023009D1CCE2EF2
:100D98001D121D161908F00020006C08603E860020
:100DA80001308700700881000130F0007008EC07FE
:100DB80008306C020318EC010130F0007008EA07F3
:100DC8000800210091121112093023009F00903071
:100DD8009D0024309E0010309B009C01FB01FA010D
:100DE8000830F20072082000ED00EC01EB01EA0186
:100DF800210091160800F5007508F400F40DF40DB3
:100E080021001D087406833974069D001D140330E3
:100E1800890B0C2F000021009D149D18112F1C0810
:100E2800F3001B08F20008008631AD2687318731B0
:100E380045278731873141278731873127278731F0
:100E48008631E5260800013021009D009E019F01A2
:100E58009B019C010800FE0012001E00FE0B302FB3
:100E68000034640080010131890B362F00342200E0
:100E78008C128C100C118E1208001630210097006D
:0A0E880008007030210099000800F6
:020000040001F9
:04000E00E4FFFFFF0D
:00000001FF
