:0400000080312428FF
:100008007E14803120007F08F1000B1F1528210085
:10001800111E15282000111E152886311B26803137
:100028001F280B1F1F282100911E1F282000911E2A
:100038001F288631712671082000FF007E100900F4
:1000480080312628F23084008430850020308600F4
:100058000130870040308631D7268031FA01FB0114
:10006800EA01EB01EC012100E801E90160308400BC
:100078000130850010308631DD267E102000803169
:1000880045288631C02680318B170B1722000C16A5
:100098002100E601E7018830F5008330F60084315D
:1000A800A524803185316625803176082100E70056
:1000B8007508E6006608670403196D280130F20028
:1000C8000030F3000130F4000030F50084314D2495
:1000D80080317F302000E2008330E3009030E4007C
:1000E8008330E500863139268031200063082100FD
:1000F800E700200062082100E6006608670403198B
:1001080090280130F2000030F3000230F400003093
:10011800F50084314D24803160302000E2008330C6
:10012800E3009030E4008330E500863139268031E1
:10013800200063082100E700200062082100E60093
:10014800660867040319B3280130F2000030F30091
:100158000430F4000030F50084314D2480314830FB
:100168002000E2008330E3009030E4008330E500B3
:10017800863139268031200063082100E7002000FD
:1001880062082100E600660867040319D6280230D1
:10019800F2000030F3000130F4000030F500843143
:1001A8004D24803125302000E2008330E300903078
:1001B800E4008330E5008631392680312000630869
:1001C8002100E700200062082100E60066086704B5
:1001D8000319F9280230F2000030F3000230F4006D
:1001E8000030F50084314D24803197302000E20042
:1001F8008330E3009030E4008330E500863139260F
:100208008031200063082100E700200062082100F7
:10021800E6006608670403191C290230F200003062
:10022800F3000630F4000030F50084314D248031AD
:1002380001302000E2008330E3009030E400833096
:10024800E500863139268031200063082100E70067
:10025800200062082100E6006608670403193F29A8
:100268000230F2000030F3000730F4000030F500EF
:1002780084314D248031D7302000E2008230E30001
:100288009030E4008330E500863139268031200043
:1002980063082100E700200062082100E6006608E4
:1002A8006704031962290230F2000030F3000830B5
:1002B800F4000030F50084314D248031AD30200049
:1002C800E2008230E3009030E4008330E5008631BC
:1002D80039268031200063082100E70020006208E9
:1002E8002100E60066086704031985290230F20038
:1002F8000030F3000930F4000030F50084314D245B
:10030800803184302000E2008330E3007830E4005C
:100318008330E500863139268031200063082100CA
:10032800E700200062082100E60066086704031958
:10033800A8290230F2000030F3000330F400003046
:10034800F50084314D2480318830F5008330F60083
:100358008431A524803185316625803176082100D5
:10036800E7007508E600660867040319C629023025
:10037800F2000030F3000430F4000030F50084315E
:100388004D2480316C302000E2008330E30090304F
:10039800E4008330E5008631392680312000630887
:1003A8002100E700200062082100E60066086704D3
:1003B8000319E9290230F2000030F3000530F40097
:1003C8000030F50084314D2480317D302000E2007A
:1003D8008230E3009030E4008330E500863139262E
:1003E8008031200063082100E70020006208210016
:1003F800E6006608670403190C2A0230F200003090
:10040800F3000A30F4000030F50084314D248031C7
:100418002100E001E1010B302000E9002630E8006E
:100428005D30890B152AE80B152AE90B152A0032CD
:100438005430F6008330F70085318D2580317708F8
:100448002100E7007608E600660867040319372AE2
:100458000230F2000030F3000E30F4000030F500F6
:1004680084314D24803104308631A72680317308C9
:100478002100E9007208E80020308600013087007A
:10048800A03084000030850040302000E8001600CD
:100498001A00E80B4B2A9430A0008330A1002100F9
:1004A80069082000A300210068082000A200E230AB
:1004B80083319A238031E2302000E8006808F20096
:1004C800A0308531B3258031F6000030F700853142
:1004D8008D25803177082100E7007608E6000F2A8D
:1004E800742A0134003410340034003401340034E8
:1004F80010345334553457342C3430343134303488
:1005080032343034333430343434303435343034B5
:100518003634303437343034383430343934303495
:10052800303430344134303442343034433430346D
:10053800443430344534303446342C344134413436
:1005480042344234433443344434443445344534E7
:100558000034503443342C34463446343034323446
:100568003034333430343434303435343034363451
:10057800303437343034383430343934303430343B
:1005880030344134303442343034433430344434F9
:1005980030344534303446342C34313441342C34FE
:1005A800303433340034503443342C343034313420
:1005B8003034323430343334303434343034353405
:1005C80030343634303437343034383430343934E5
:1005D80030343034303441343034423430344334BD
:1005E8003034443430344534303446342C343134A7
:1005F80032342C34303435340034503453342C34C1
:1006080031343134323432343334333434343434AE
:10061800353435343634363437343734383438347E
:10062800393439343034303441344134423442344A
:1006380043344334443444344534453446344634EE
:10064800003453342D342C34503449344334313449
:1006580036342D3442344C34453432342D3430342D
:100668003034313400343034313432343334343487
:1006780035343634373438343934413442344334F9
:100688004434453446340034533452342C343034F2
:100698003034303430343034303430343034003462
:1006A80041342C3430343034353430342C34303414
:1006B8003734443430340034533453342C344334D2
:1006C8003034303430343034303430343134003431
:1006D8005334553457342C3432344134313439346A
:1006E8002C343334323400345234653462346F3449
:1006F8006F3474340034533446342C343134003479
:1007080052342C343134003443344D3444340034BE
:1007180045344E344434003441344F344B3400347F
:1007280025345834003450345A3400342000AE0094
:100738002230A4002408AA002108A5002008A4004B
:10074800A00A0319A10A24088400250885000008C6
:10075800A6002608AF002F080319482C25302F06BD
:100768000319C22B2F08A4002E088600870124082D
:1007780081000130A4002408AE07A02BA80121089D
:10078800A5002008A400A00A0319A10A24088400CF
:10079800250885000008AF00003A0319482C583A8C
:1007A8000319DA2B203A0319DA2BA02B2A08860022
:1007B8008701403FAB00413FAC000230A400240851
:1007C800AA07AF01AF0A04302F0603190A2C2F0815
:1007D800A400A501A435A50D753024078400823036
:1007E800253D8500003FA600013FA70027082C02F1
:1007F800031D002C26082B02031C0A2C0130A40020
:100808002408AF0704302F06031DEB2B2F08A40084
:100818002408AD00FF30A4002408AD072D0A0319F1
:10082800A02B2D08A400A501A435A50D753024071B
:1008380084008230253D8500003FF200013FF3002F
:100848002C08F5002B08F400853132258331720815
:100858000F392000A6002608A9002908373E840081
:1008680083300318013E85000008A4002408AF0067
:100878002F08A4002E088600870124088100013073
:10088800A4002408AE070E2C2E08860087018101DB
:1008980008000730F7007F30F6005030890B522CE3
:1008A800F60B522CF70B522CF801F9017908803A13
:1008B800F6007308803A7602031D642C72087802E9
:1008C8000318962C8631E32684310230F7004D3028
:1008D800F6007430890B6E2CF60B6E2CF70B6E2C11
:1008E8000032741C792C22008C16F41C7D2C2200FA
:1008F8008C14741D812C22000C15F41D852C2200EB
:100908008E160230F7004D30F6007430890B8A2CB1
:10091800F60B8A2CF70B8A2C00320130F8070030CE
:10092800F93D5A2C8631E32684310730F7007F30B1
:10093800F6005030890B9E2CF60B9E2CF70B9E2C44
:1009480008008531FC258431F40074082000A000DB
:1009580020080319A52CE001E1018531FC2584312B
:10096800F40001302000E0070030E13D6008203E3F
:1009780086008701740881006008203E8600870190
:100988000A3001060319D32C6108803AF40080303C
:100998007402031DD12C40306002031CB12C2000CE
:1009A8006008203E860087010A300106031DE12CFD
:1009B8006008203E8600870181016008FF3E203ED6
:1009C800860087010D300106031DF02C6008FF3EEC
:1009D800203E8600870181012030080053345534B9
:1009E80057342C34303431343034323430343334B6
:1009F80030343434303435343034363430343734B9
:100A0800303438343034393430343034303441349C
:100A18003034423430344334303444343034453460
:100A2800303446342C34003400340034003400347C
:100A3800003400340034003400340034003400340E
:100A480000340034003400340034003400340034FE
:100A5800003400340034003400340034F701F80165
:100A6800720873040319612DF901F90AF31B462D65
:100A78000130F235F30D890B3D2D0130F600760873
:100A8800F9073A2D0130F735F80D890B472D730812
:100A98007502031D512D72087402031C582D72082B
:100AA800F4027308F53B77140130F336F20C890B26
:100AB800592D0130F902031D462D7808F3007708F7
:100AC800F2000800F900702D0130F7007708F907E7
:100AD8000130F5070030F63D790886008701750872
:100AE8008400760885000008FF3A013E0107F700F8
:100AF8007708F8007808031D872D79088600870194
:100B08000108031D682D7808F500F601F51BF603AA
:100B180008002000A001A1017608200784007708BA
:100B2800213D850012000319A92D760820078400AD
:100B38007708213D850000088531D82585310130A9
:100B48002000A0070030A13D902D0D308531D8251B
:100B580085310A308531D825F601F7010800F400FF
:100B68007408F3007308F50075088600870101080A
:100B78000319CB2D0130F3007308F507B82D0130A8
:100B8800F3007308F5070130F3007308F2077508DE
:100B9800860087017208840085010008C03F890823
:100BA800031DC32D74080800F30020006D08031905
:100BB800D92D2100111AE42D730823009A00F92D6C
:100BC80011127308F2007B08683E86000130870026
:100BD800720881000130F2007208FB0708307B02BE
:100BE8000318FB0101302000ED0221001116080056
:100BF800F30120006A080319FD2D6B08603E86008A
:100C0800013087000108F2007208F3000130F20099
:100C18007208EB0708306B020318EB0121009112F0
:100C280001302000EA0221009116730808000830FC
:100C380020006D020318362E7A08683E86000130BF
:100C48008700010823009A000130F0007008FA07B5
:100C580008307A020318FA010130F0007008200009
:100C6800ED07080021001112080020006308F700B2
:100C78006208F60085318D2586318431A5248631B8
:100C88002000E6006608E7006508F6006408F5003D
:100C980067088531662576082000E3007508E200BC
:100CA800080022008C018D018E01093021008C0082
:100CB80070308D00CF308E00CE3023008E00103083
:100CC8008D0017308C00F03024008D003F308C00F0
:100CD8002100951322009D01080023009D1C762EFB
:100CE8001D121D161908F00020006C08603E8600D1
:100CF80001308700700881000130F0007008EC07AF
:100D080008306C020318EC010130F0007008EA07A3
:100D18000800210091121112093023009F00903021
:100D28009D0024309E0010309B009C01FB01FA01BD
:100D38000830F20072082000ED00EC01EB01EA0136
:100D4800210091160800F5007508F400F40DF40D63
:100D580021001D087406833974069D001D14033094
:100D6800890BB42E000021009D149D18B92E1C0873
:100D7800F3001B08F20008008631552686318631BB
:100D8800ED2686318631E92686318631CF268631B1
:100D980086318D260800013021009D009E019F01AB
:100DA8009B019C010800FE0012001E00FE0BD82EBD
:100DB8000034640080010131890BDE2E00342200EA
:100DC8008C128C100C118E1208001630210097001E
:0A0DD80008007030210099000800A7
:020000040001F9
:04000E00E4FFFFFF0D
:00000001FF
